:04000000803116280D
:1000080080312000911C09008B139A0107309C0055
:100018009110A80A0319A90A0319AA0A0319AB0A15
:100028008B17090088018C31CD2CCA258031003A04
:1000380003192828EF08031D23280730C9006F0B70
:1000480008000630C90008004908083A031934288E
:100058004908073A031934284908023A031D602859
:100068000E1939282B084D2680318E1940282B0867
:10007800BB002A08472680312B08A3002A08A200C3
:100088002908A1002808A0003008A0023108A13BD7
:100098003208A23B3308A33B2B08A7002A08A60076
:1000A8002908A5002808A4003808A4023908A53B97
:1000B8003A08A63B3B08A73BC908031D7D2800302A
:1000C8002B02031D712800302A02031D71280030FD
:1000D8002902031D7128C830280203187A280E1D2A
:1000E80077288E1908002B0819260800C901C90AA3
:1000F8000800490B9B283408E22580310030620251
:10010800031D902800306102031D90280030600212
:10011800031D902832305F02031C94280C1A98287B
:10012800EF010730C9000800EF01EF0A2528490848
:10013800023A031DFB287A258031700371040319E4
:10014800CE28003020002702031DB42800302602E4
:10015800031DB42800302502031DB42833302402BF
:10016800031CBA280430C9000030CB2C003023020D
:10017800031DC82800302202031DC82800302102B0
:10018800031DC82833302002031C08000430C900AE
:100198000130CB2C0730F6287A25803170037104A2
:1001A8000319F52820008E1DDB280E1908008E196A
:1001B800DF280030E0280130CB2480312908EA000C
:1001C8002808E90055262100AC01AD01AE01AF01B8
:1001D8002000D030C401EB000730EC000530C90026
:1001E800080006302000C900A5268031482D49089E
:1001F800033A0319D0284908043A031D2929C608D7
:1002080003198E191C298E1908002908EA002808E4
:10021800E9003808E9023908EA3BD1248031A526EB
:10022800803148258031A5268031482580319528A0
:10023800460B08000E1D0E1908002908EA002808B8
:10024800E9003008E902310810294908053A031D78
:10025800B5292C083B2680310A30F000F1016C08E2
:10026800F3006B08F200952580316B087007E300F6
:100278006C08713DE4006308E5006408E600E701E6
:10028800E80162086802031D532961086702031D1B
:10029800532960086602031D53295F086502031885
:1002A80083294C08F0009630F101F200F30159253A
:1002B80080317108EA007008E90021002C0820004C
:1002C800E90721002D082000EA3D4C08F000F10163
:1002D8006A08F3006908F200952580317108EC007E
:1002E8007008EB004C36EE00D1248031A526803111
:1002F80048258031A5268031482580312528C40825
:10030800031D9D298E1D8B29460803198F290E1D53
:100318009D29460B9D29C108031D98290530C10157
:10032800C10AF400F5011A2DC101F325C401C40A5C
:100338000800440BB3298E19A42946080319A829D3
:100348000E19B329460BB329C10803199229C10113
:10035800F32580311430C401F400F5011A2DC101D0
:1003680008004908073A031D172A00302702003001
:10037800031DC82926020030031DC8292502031DB4
:10038800C729333024020030031CE9292302031D46
:10039800D72900302202031DD72900302102031D6E
:1003A800D729323020020318E82903304402031CFD
:1003B800E6290030CB24803121260830C900C40149
:1003C8000E160800C40A080000302302031DF6298F
:1003D80000302202031DF62900302102031DF629F0
:1003E80033302002031C152A00302702031D062A79
:1003F80000302602031D062A00302502031D062AA6
:10040800323024020318152A03304402031CE6295B
:100418000130CB24803121260830C900C4018E1454
:100428000800C40108004908083A031D782A2C0866
:100438003B2680316908E3006A0860268031031D85
:100448002F2A61086502031D2F2A60086402031D14
:100458002F2A5F0863020318372AC42480316E25C7
:100468000730C9000800C608031D582A00302302B7
:10047800031D482A00302202031D482A00302102A9
:10048800031D482A33302002031C080003304402AD
:10049800031CE6290130CB248031C42480316E2529
:1004A8008031C4018E14E629460B152A0030270234
:1004B800031D682A00302602031D682A0030250221
:1004C800031D682A33302402031C08000330440249
:1004D800031CE6290030CB248031C42480316E25EA
:1004E8008031C4010E16E62949080A3A031D182B63
:1004F8008E1D0E1D842A2B0819260B30C9000800F2
:100508008E19882A0E1D25288E190E1D08003408FC
:10051800E225803100306202031D9C2A003061020E
:10052800031D9C2A00306002031D9C2A32305F02A2
:10053800031C25283408E225803100306202031D9F
:10054800AF2A00306102031DAF2A00306002031D8C
:10055800AF2A33305F02031CF32A2B08662680314A
:10056800AF26803183268031BA25803176268031C6
:10057800CC2680319E268031702780310318F32ADB
:100588002100240820002802DF002100250820007F
:10059800293BE0002100260820002A3BE100210039
:1005A80027088E268031592580317008E3007108AC
:1005B80060268031031DEA2A61086502031DEA2AC4
:1005C80060086402031DEA2A5F0863020318F32A1D
:1005D8000130CB240930C0010E14C90008003408CA
:1005E800E225803132268031031D042B6108650223
:1005F800031D042B60086402031D042B5F086302BB
:10060800031808000630C9002B082100A7002000A5
:100618002A082100A600200029082100A5002000A2
:1006280028082100A400080049080B3A031DB82B2C
:100638008E190E19242B2B0819260A30C900080018
:100648008E19282B0E1D25288E190E1D080034081A
:10065800E225803100306202031D3C2B003061022C
:10066800031D3C2B00306002031D3C2B32305F021F
:10067800031C25283408E225803100306202031D5E
:100688004F2B00306102031D4F2B00306002031D09
:100698004F2B33305F02031C932B2B0866268031C7
:1006A800AF26803183268031BA2580317626803185
:1006B800CC2680319E268031702780310318932BF9
:1006C8002100280820002802DF0021002908200036
:1006D800293BE00021002A0820002A3BE1002100F4
:1006E8002B088E268031592580317008E300710867
:1006F80060268031031D8A2B61086502031D8A2B41
:1007080060086402031D8A2B5F0863020318932B99
:100718000030CB240930C900C0018E160800340807
:10072800E225803132268031031DA42B6108650241
:10073800031DA42B60086402031DA42B5F08630239
:10074800031808000630C9002B082100AB00200060
:100758002A082100AA00200029082100A900200059
:1007680028082100A80008004908063A031DD42BD0
:100778000E19C02B8E1D08000E1D8E1DCA2B2B08AE
:1007880019268031C4240A30C90008008E1D0E1DA8
:1007980008002B0819268031C4240B30C900080032
:1007A8004908093A031D0800C608031D512C440BCB
:1007B800FB2B3408E225803132268031031DEE2BD5
:1007C80061086502031DEE2B60086402031DEE2B11
:1007D8005F0863020318152CC401C42480312B0858
:1007E800192680316E084C0203182528152C340868
:1007F800E225803132268031031D0C2C6108650208
:10080800031D0C2C60086402031D0C2C5F08630296
:100818000318152CC401C40ACC0A8E162B081926F5
:1008280080310E19192C8E19C32B8E1D0E19512CBF
:10083800C008031D272C2B08BB002A084726803137
:10084800C001C00A512C38082802DF003908293BAA
:10085800E0003A082A3BE1003B0899268031031D55
:100868003F2C00306102031D3F2C00306002031D45
:100878003F2CC9305F02031C512C0A30C0018E1274
:10088800F400F5011A2580318E194C2C0E1D2528EF
:100898008E1D502C0E1DC32B8E16460B0800440BC4
:1008A800732C3408E225803132268031031D662CF2
:1008B80061086502031D662C60086402031D662C2E
:1008C8005F08630203188D2CC401C42480312B08EF
:1008D800192680316E084C02031825288D2C3408FF
:1008E800E225803132268031031D842C610865029F
:1008F800031D842C60086402031D842C5F086302B6
:1009080003188D2CC401C40ACC0A0E142B0819260E
:1009180080318E1D0E19CA2BC008031D992C2B0877
:100928004D268031C001C00ACA2B30082802DF00DA
:100938003108293BE00032082A3BE10033089926B8
:100948008031031DB12C00306102031DB12C003031
:100958006002031DB12CC9305F02031CCA2B0A3088
:10096800C0010E10F400F5011A2580318E19BE2C35
:100978000E1D25288E19C22C0E19CD2B0E14CA2B2C
:1009880020008E120E100E128E100E100800F000AD
:10099800C401C40AC6005526080020006A08CD0014
:1009A80023009518D42C9101920120004D08CD25E3
:1009B80080311A2580316908CD0023009518E12C73
:1009C8000130EE258031CD2580311A2580316C0823
:1009D800CD0023009518ED2C0230EE258031CD2571
:1009E80080311A2580316B08CD0023009518F92C29
:1009F8000330EE258031CD2580311A258031230042
:100A08009518032D04309100920120006E08CD2521
:100A180080311A258031230095180F2D063091005A
:100A2800920120006D08CD2580311A2D7025803166
:100A38007308FD007208FC007108FB007008FA00DA
:100A48007408F6007508F7000030F71BFF30F8004F
:100A5800F9007608FA077708FB3D7808FC3D790825
:100A6800FD3D702580317D087302031D452D7C08EE
:100A78007202031D452D7B087102031D452D7A085E
:100A8800700203180800352DEF08031D4E2D0E16B1
:100A98008E14502D8E160E14AA2680311A258031F8
:100AA800C4248031AA2680311A2DF401F501701C66
:100AB800612D7208F4077308F53DF235F30DF13630
:100AC800F00C71087004031D5B2D7508F1007408A3
:100AD800F00008002126080020002B08F3002A084F
:100AE800F2002908F1002808F00008002B0821006E
:100AF8003702031D8F2D20002A0821003602031D0E
:100B08008F2D2000290821003502031D8F2D20007C
:100B18002808210034020030031C0130F000F101E4
:100B28000800F401F501710870040319B52DF601E8
:100B3800F60AF11BA22DF035F10D9C2DF435F50DBB
:100B480071087302031DAA2D70087202031CB12DCF
:100B58007008F2027108F33B7414F136F00CF60BCE
:100B6800A22D7508F1007408F00008004D08F00087
:100B78004E08F1008E30F201F300F40130277008BE
:100B8800CD007108CE007208CF00080020004A0886
:100B98000800230093003F30950503108B1B0314B6
:100BA80055308B1315159600AA309600951415111B
:100BB80003188B171430F400F50108002802DF0031
:100BC8003508293BE00036082A3BE10037082B3B73
:100BD800E20008009100920120004D080800CC0AAC
:100BE8002C082802DF002D08293BE0002E082A3BAC
:100BF800E1002F082B3BE2005F082100AC07200032
:100C080060082100AD3D200061082100AE3D2000B4
:100C180062082100AF3D20002B08AF002A08AE0073
:100C28002908AD002808AC000800B7002A08B6005B
:100C38002908B5002808B40008002B08BB002A08BA
:100C4800BA002908B9002808B8002B08B3002A08F8
:100C5800B2002908B1002808B00008006B08E300BA
:100C68006C08E400E501E601620866020800280253
:100C7800DF002D08293BE0002E082A3BE1002F0861
:100C88002B3BE2000800BA002908B9002808B80080
:100C98000800B3002A08B2002908B1002808B000EB
:100CA80008002B08AF002A08AE002908AD00280864
:100CB800AC00CC01CC0A0800E400E501E6016208BA
:100CC80066020800D0002A08CF002908CE002808AC
:100CD800CD003408CD023508CE3B3608CF3B370867
:100CE800D03B08004D08D3004E08D4004F08D5006B
:100CF8009A30D0005930D1003F30D20008004D085A
:100D0800F8004E08F9004F08FA006C08CE006B088E
:100D1800CD00080020002B3BE2006C08F1006B08B6
:100D2800F0000330F200F30108002B3BE200003032
:100D3800620208005008FB005108FC005208FD0040
:100D480008002C30CD000130CE0008004E08F50018
:100D58004D08F40008008E30D100FF30500503190B
:100D6800BB2ED036CF0CCE0CCD0CD10AB12E4D08EF
:100D7800F0004E08F1004F08F2005108F300F401AA
:100D880030277008CD007108CE007208CF00080027
:100D98005008D6005108D7005208D8000310570D44
:100DA800580DD900D908031DDD2ED001D101D2017B
:100DB80008005308D6005408D7005508D800031077
:100DC800570D580DDE00DE08031DEE2ED001D101AF
:100DD800D20108005E087B3ED9075208DE0055089C
:100DE800DE068030DE05FF30D117D417D305D405D1
:100DF8000730D501DA01DB01DC01DD00501C072FCB
:100E080053086A278031D236D10CD00CD335D40D93
:100E1800D50DDD0B022F0930DD00501C162F5308AD
:100E28006A278031D236D10CD00CDC36DB0CDA0CD8
:100E3800DD0B112F5A08F0005B08F1005C08F20086
:100E48005908F3005E08F40030277008D0007108D4
:100E5800D1007208D200080073080319382F7208ED
:100E680071047004031D402FF001F101F201080024
:100E7800F30AF236F10CF00CFE30720503194E2F0E
:100E88003C2FF30AF00A0319F10A0319F20AF236A1
:100E9800F10CF00CFF3072050319572F452FF3039F
:100EA800F035F10DF20DF11F532F731CF113F336CA
:100EB8007308F700F601F5017508F0047608F104E7
:100EC8007708F2047408031DF2170800DA075408BB
:100ED800DB3D5508DC3D0800FA1F7F2F7808003CF1
:100EE800F8007908031C790F003CF9007A08031C04
:100EF8007A0F803CFA00FD1F8E2F7B08003CFB0018
:100F08007C08031C7C0F003CFC007D08031C7D0F43
:100F1800803CFD008030FA06FD067D087A02031D3C
:100F280008007C087902031D08007B087802080085
:0C0F3800640080010131890B9D2F003402
:10199A0020308400003085002D3087319C278C311F
:1019AA00A0308400003085001C3087319C278C31A0
:1019BA00FF30E900EA00EB00EC00ED00EE00013038
:1019CA00EF002000E82CF5248C3151278C31FB24C0
:1019DA008C315F25803119208C3141258C31EE2CD8
:1019EA002100991119169916191708008C1A3D2DFC
:1019FA00CB01CB0A6D0B092D21001230A301A200E5
:101A0A004F30A1008030A00020006D08023A031D6B
:101A1A00152D21002430A301A2009F30A100A001AE
:101A2A0020006D08033A031D222D21003630A30140
:101A3A00A200EE30A1008030A00020006D08043A18
:101A4A00031D2F2D21005230A301A2006530A100F1
:101A5A00C030A00020006D08053A031D3E2D21006C
:101A6A006D30A301A200DD30A1000030A0013E2D9F
:101A7A00CB0120000C15080020004B0B08002B0896
:101A8A0021002302031D592D20002A0821002202C9
:101A9A00031D592D2000290821002102031D592D5B
:101AAA0020002808210020020318080020000C1139
:101ABA00CB01080013278C31063A03196B2D132723
:101ACA008C31073A03196B2DCA010800CA08031D95
:101ADA00752D8C1908002B08D827CA01CA0A0800D4
:101AEA004A0B8D2D8C19692D3C08BA278C31031DA0
:101AFA00882D00305102031D882D00305002031D2D
:101B0A00882D33304F02031C08000230CA00080037
:101B1A004A08023A031DDB2D8C19D42D00302B0202
:101B2A00031DA12D00302A02031DA12DEA3029022E
:101B3A00031DA12D60302802031808006F0BBF2D6A
:101B4A003C08BA278C31031DB42D00305102031D05
:101B5A00B42D12305002031DB42DC1304F02031CA4
:101B6A00BF2DE830CD000330CE0085314825043042
:101B7A00CA000800EF08031D08003C08BA278C3188
:101B8A00031DD12D00305102031DD12D0F305002FB
:101B9A00031DD12DA1304F02031C0800B62D0330BE
:101BAA00CA00C301C5012B08D82708004A08033A0E
:101BBA00031D372E6F0B1C2E450B032E3C08BA272C
:101BCA008C31031DF22D00305102031DF22D03301A
:101BDA005002031DF22D21304F02031C0800C501DB
:101BEA008431C4248C312B08D8278C31023043022B
:101BFA00031C0800063016278C31692D3C08BA27C9
:101C0A008C31031D122E00305102031D122E033097
:101C1A005002031D122E21304F02031C0800C30A72
:101C2A00C501C50A0E148E162B08D82708003C08D1
:101C3A00BA278C31031D2B2E00305102031D2B2E87
:101C4A0003305002031D2B2EE8304F020318302EAA
:101C5A000E168E1408008431C4248C3107301627DE
:101C6A008C31692D4A08043A031D652E8C19622E9F
:101C7A003C08BA278C31031D4C2E00305102031D3B
:101C8A004C2E1F305002031D4C2E41304F02031CB4
:101C9A0008000530CA00E830C501C201CD00033092
:101CAA00CE00853148258C31E830CD000330CE0096
:101CBA00853148258C31C827080019278C31692DB0
:101CCA004A08053A031D080042080319A02E2100FC
:101CDA00380820002802CF00210039082000293BBB
:101CEA00D00021003A0820002A3BD10021003B08FD
:101CFA002000F5278C31031D8C2E00305102031D64
:101D0A008C2E03305002031D8C2EE9304F02031C27
:101D1A00A02E4208C700C2034208FF3A03199D2EAB
:101D2A002C30CD000130CE00853148258C31902EE3
:101D3A00C201C8278C3120008C19A92EC508031DA1
:101D4A00D82EC501C50AD82E450BD82E3C08BA276D
:101D5A008C31031DBA2E00305102031DBA2E0030F9
:101D6A005002031DBA2E33304F02031CD82E063000
:101D7A00C20AF000420839278C310038031DC72EE9
:101D8A00C201C20A2B082100BB0020002A08210038
:101D9A00BA00200029082100B900200028082100E3
:101DAA00B8002000C501C208031D08002100300840
:101DBA0020002802CF00210031082000293BD00052
:101DCA002100320820002A3BD100210033082000DC
:101DDA00F5278C31031DFB2E00305102031DFB2E0B
:101DEA000F305002031DFB2EA1304F02031C0800C6
:101DFA004708ED008431D1248C31CA01F430CD007A
:101E0A000130CE00853148258C31C7034708FF3A97
:101E1A0003190800C830CD00CE01072F2000490859
:101E2A000800F000C90008002B082100B7002000B4
:101E3A002A082100B600200029082100B500200048
:101E4A0028082100B400A030B4070F30B53D003097
:101E5A00B63DB73D2000EF08031D362F0230C900FA
:101E6A0008000330C9000800F2000830F300F4014A
:101E7A007208F1000730F136890B402F743571046E
:101E8A00F400F23570087402031C4D2F7008F40236
:101E9A00F30B3D2F7408080023008C0121009513D1
:101EAA0024008C018C158C1623008E010C30240022
:101EBA008E0021008C158E150E150C168C168E10A0
:101ECA000E128E120E100C118431C4248C310C1097
:101EDA008C109A0107309C007D309B008B170B17E2
:101EEA0021009114782F0130FA278C3115149101B1
:101EFA009201E0278C31E9004F0803184F0AEA00E3
:101F0A000330FA278C3102301514910092013F30C8
:101F1A00E0278C31EB004F0803184F0AEC0004301D
:101F2A002300ED278C31EE0006302300ED278C319B
:101F3A00ED00690A03196A0A031D08006B0A0319EE
:101F4A006C0A031D08006E08FF3A031D0800703072
:101F5A00E9001730EA00E830EB000330EC00043007
:101F6A00EE000230ED008431D12C2802CF003D086A
:101F7A00293BD0003E082A3BD1003F082B3BD20028
:101F8A000030520208002B082100B30020002A0862
:101F9A002100B200200029082100B10020002808F1
:101FAA002100B0000800BF002A08BE002908BD00B1
:101FBA002808BC0008009505151413082000CE0057
:101FCA00CF01CF00CE012300130820004E070800DE
:101FDA00910092013F30950515141308200008005E
:101FEA002B3BD200003052020800230091009201DC
:061FFA003F3095050800D0
:020000040001F9
:04000E00A4FFFFDB71
:00000001FF
